:020000040800F2
:1000000000000220C1E500089D060008A1060008C6
:10001000A5060008A9060008AD06000800000000BB
:10002000000000000000000000000000B106000811
:10003000B506000800000000B9060008BD0600086B
:1000400009E6000809E6000809E6000809E60008D4
:1000500009E6000809E60008C9060008C10600080C
:1000600009E6000809E6000809E6000809E60008B4
:1000700009E6000809E6000809E6000809E60008A4
:1000800009E6000809E6000809E6000809E6000894
:1000900009E6000809E6000809E6000809E6000884
:1000A00009E6000809E6000809E6000809E6000874
:1000B000D106000809E6000809E6000809E600087C
:1000C00009E6000809E6000809E6000809E6000854
:1000D00009E6000809E6000809E6000809E6000844
:1000E00009E6000809E6000809E6000809E6000834
:1000F00009E6000809E6000809E600084D0D0008B9
:1001000009E6000809E6000809E6000809E6000813
:1001100009E6000809E6000809E6000809E6000803
:1001200009E6000809E6000809E6000809E60008F3
:1001300009E6000809E6000809E6000809E60008E3
:1001400009E6000809E6000809E60008D5060008E7
:1001500009E6000809E6000809E6000809E60008C3
:1001600009E6000809E6000809E6000809E60008B3
:1001700009E6000809E6000809E6000809E60008A3
:0801800009E6000809E6000889
:1001A0002DE9F043334883B051B34FF4005108F0C8
:1001B000A9FD3048DFF8CC804FF4804108F0A4FD61
:1001C0002D4E2E4C31682068DFF8BC9000F058FFAF
:1001D0002568376803461D444FF0000EFF1ACDF81E
:1001E00000E0D9F8000025603246214643463760DA
:1001F00000F0A2FFC0B102300ED003B0BDE8F08322
:100200004FF4804108F07EFD1A48DFF880804FF4FB
:10021000005108F079FDD3E7194B1969404603B046
:10022000BDE8F04300F054BD154CD9F8000021465C
:1002300000F03CFF6368012B06D02169404603B003
:10024000BDE8F04300F044BD2369002B4FEA4301B1
:100250000DDB08EB830308EB0102A8F1040510880D
:10026000188032F802095880043BAB42F7D1216173
:10027000D4E700BF000C02408CD4002090D40020B2
:1002800094D400204809002000AE00204829002016
:1002900070B582B002AB002203F8052D264C019206
:1002A00005460E4620461946012201AB06F080FDA8
:1002B00010B9019B012B02D0012002B070BD013D9D
:1002C000772D10D8204601AB31462A4606F070FD46
:1002D00010B1019B9D42EFD19DF8030068B1012848
:1002E0000DD00020E9E7A1682046294406F0A0FFD0
:1002F000003018BF012002B070BD7055DDE7022D3F
:1003000010D93378FF2B11D00023711E0022F05C2E
:1003100001F8010F02339D4202F10102F7D80020DB
:10032000B054CAE7002DEFD12A46F8E77378FE2BC8
:100330000CBF02230023E8E7DCA9002010B52E2122
:1003400004460EF083FA18B1A04201D0013010BD6E
:10035000004810BD946A01082DE9F04FADF50D7D00
:10036000B14B1393B1494FF4807315A8149307F060
:100370002FF8002840F09780AD4CDFF8C892254652
:10038000CA4615A80DA907F059F8002840F08B803F
:100390009DF83D30002B00F086802E2BF1D0139B72
:1003A0001A780AB90DF13D039DF83C20D006E8D437
:1003B000A0499E4A5AA80EF0D7F95AA8FFF7BEFFE7
:1003C00001469D480CF0F0FF0028DAD19B4F9C4E6F
:1003D0009C483E604FF400535AA90122236006F066
:1003E0002FFC86460028CCD104AB07A995488DF890
:1003F00078E00A228DF8F0E0CDF810E006F0D8FCA5
:1004000010B9049B0A2B52D00DF128088C498D4855
:100410004FF40052434606F0CBFC00F02BFE8A4B13
:1004200002211860062240F20F10002300F0C4FAE7
:10043000AF2000F0B5FA8548002100F0F7FB2368F3
:10044000B3F5805FFBDA2A6839687D480CF008FF55
:100450002B6829687B483E60C3F5005B5A463144EF
:10046000434606F0A5FCD8F8003079494FF4005215
:100470009B452A6003D810B90B69DA07DFD500F075
:1004800003FC06220221002340F20F1000F094FA30
:10049000002000F085FA6B4806F0C2FE6C4A136932
:1004A000DB07FCD46DE70DF50D7DBDE8F08F9DF801
:1004B0001C30492B07D001900DF1280801996148A3
:1004C00006F0B6FEA2E79DF81D30442BF3D19DF84F
:1004D0001E30332BEFD19DF823309DF822109DF86C
:1004E00025209DF8240003F07F039B0301F07F018A
:1004F00043EA415E02F07F029DF81F309DF8211013
:1005000002934EEA020300F07F0243EAC213490657
:1005100001930DF1280851D44FF0020B4948414690
:100520000A2204AB06F044FC039000287FF46EAF6F
:10053000049A0A2A7FF46AAF98F80020002ABDD0F6
:100540004046444903220EF035F90028B6D0D8F8C9
:100550000020039BDDF808E005928DF818300BAA07
:100560000CA8BEF1030F25D0BEF1040F04D1117801
:1005700001F07F0101EBC31301328242F1D105A8E2
:10058000354903930CF010FF039B002845D005A8C4
:10059000324903930CF008FF039BA8BB18463CA903
:1005A000FFF776FE002889D10BF1FF3BBBF1000F6E
:1005B000B4D183E7117801EB0323DDE74146042240
:1005C00004AB204806F0F4FB98F8011098F800E01E
:1005D00098F8033098F80200DAF8082001F07F015B
:1005E00089030EF07F0E41EA4E5103F07F0300F0C5
:1005F0007F000B4343EAC011043A1144114806F04E
:1006000017FE002888D001E7D9F808100D481944D2
:1006100006F00EFE002881D0F8E618461EA9FFF766
:1006200037FE0028C0D049E748490020946A0108F5
:100630008CD40020806A0108886A010890D40020C8
:10064000F8B30020DCA9002000AE0020A1010008C2
:10065000000002408C6A0108906A0108986A01084B
:10066000054B1A6812B11A68013A1A60034A1368F6
:1006700001331360704700BFD8A9002004AE0020EA
:1006800082B0044A0190019B13601368002BFCD1D7
:1006900002B07047D8A90020704700BF704700BF64
:1006A000FEE700BFFEE700BFFEE700BFFEE700BFBA
:1006B000704700BF704700BF704700BFFFF7D0BF53
:1006C000022008F003BA00BF012008F0FFB900BF04
:1006D00000F0AABC01480CF03DBD00BF08AE0020F0
:1006E00039493A4BD1F88820394842F47002C1F8B0
:1006F00088201A68002142F001021A6099601A6885
:1007000022F0847222F480321A6058601A6882B033
:1007100022F480221A60D960009101911A6842F493
:1007200080321A601A4603E0009BB3F5A06F09D02F
:10073000136803F400330193009B01330093019B82
:10074000002BF1D0214B1B6813F4003318BF012399
:100750000193019B012B05D01B4B4FF000629A6067
:1007600002B07047194B1B491A6C1B4842F080526B
:100770001A640A6842F480420A609A689A609A6829
:1007800042F400429A609A6842F4A0529A6058601B
:100790001A6842F080721A601A4611680B4B890180
:1007A000FBD50E4A40F2056111609A6822F00302FF
:1007B0009A609A6842F002029A601A46936803F0BF
:1007C0000C03082BFAD1C7E700ED00E00038024027
:1007D000103000240070004008544007003C0240E4
:1007E0001848836803F00C03042B28D0082B09D089
:1007F000154B144A15499268C2F303128A5CD34020
:100800000B6170474368416813F4800F436818BF59
:100810000F4801F03F020CBF0B49B0FBF2F1C3F3EC
:10082000881308BFB1FBF2F101FB03F2054B5B68D3
:10083000C3F3014301335B00B2FBF3F3D9E7044B8D
:10084000D7E700BF003802400024F4000000002079
:1008500040787D01002070470020704701207047DC
:10086000002070474FF0FF30704700BF00207047F6
:10087000064B186838B101446A46914294BF19602A
:100880004FF0FF30704702481860F4E7504A0020EC
:10089000F4E1002070B5161E0EDD0C468D190748D8
:1008A00014F8011B09F056FA0448402109F016FB20
:1008B0000028F9D0AC42F2D1304670BD004400406F
:1008C00010B4144C228B134B9207FBD41A8892B2AB
:1008D00042F480721A809C8A0E4AE407FBD5942366
:1008E0001382948A0B4BA407FBD580B21A8B188213
:1008F000988A084A0006FBD589B21182938A054975
:100900005B07FBD50B885DF8044B9BB243F4007387
:100910000B80704700540040114A124B124910B42A
:10092000116018681149506091605968D1600421C4
:10093000516111681C6941F001010020116058608B
:100940009A6801214A409A6019732CB199685869D4
:1009500023465DF8044B18475DF8044B704700BF11
:10096000B8600240544A0020502C01000C3C00406A
:1009700008B502209E21FFF7A3FF024B4FF46062EF
:100980009A8308BD003C004008B502200121FFF712
:1009900097FF024B00229A8308BD00BF003C004035
:1009A00010B51930C4B221462020FFF789FF214637
:1009B0002120BDE8104083E72DE9F04FDFF848E241
:1009C000DFF834A20646012087B04FF000080F463A
:1009D0000146CEF80480CEF81080CEF80080CEF824
:1009E0001480CEF8088014468EF80C801D4607F05F
:1009F00001FF0220012107F0FDFE0420012107F084
:100A0000F9FE0820012107F0F5FE4FF40010012146
:100A100007F0F0FE4FF4001001214FF0100B07F02B
:100A20000DFF4FF40040012107F008FF4FF00209CD
:100A3000012350460DEB0B018DF8143001938DF816
:100A400016808DF81780CDF810B08DF8159008F04D
:100A5000CFF8019B65488DF816304FF410720DEBFE
:100A60000B0104928DF815908DF814908DF8178075
:100A700008F0BEF85D480621042208F053F904226C
:100A80005A48092108F04EF94FF4A4530DEB0B011D
:100A9000574804938DF815908DF814908DF81680B2
:100AA0008DF8178008F0A4F851480721062208F0B5
:100AB00039F94F480A21062208F034F906224C4839
:100AC0000C2108F02FF90DEB0B014A48CDF810B0BE
:100AD0008DF815908DF814908DF816808DF817808C
:100AE00008F086F806224348042108F01BF9AAF80A
:100AF0001AB0CDF80C80039B44F6FE72934206DCDC
:100B000000BF039B01330393039B9342F8DD3A4BF1
:100B100010221A834FF40010012107F0CBFE4FF48E
:100B20000010002107F0C6FE344B40F201424FF0A6
:100B3000D20C4FF02B0E2A2048F2330198801981F5
:100B40000220A3F81CC00121A3F820E01A80FFF7BF
:100B5000B7FE0420AF21FFF7B3FE05208121FFF788
:100B6000AFFE04210620FFF7ABFEFF20FFF718FFC2
:100B700002209E21FFF7A4FE0A200021FFF7A0FE1D
:100B80000E200421FFF79CFE27200021FFF798FE8E
:100B90001F200F21FFF794FE1A200A21FFF790FE75
:100BA0000A211B20FFF78CFE154B164A0021998362
:100BB0009368B60123F4000346EA07779360C2F80E
:100BC0008470136843F08063136013681B01FCD5C5
:100BD00044F400740A4B44EA0525ADB24FF4606258
:100BE0001D849A8307B0BDE8F08F00BF0004024067
:100BF0000008024000000240000C02400054004087
:100C0000003C004000380240544A002003490B8950
:100C1000024A9B07FBD580B290817047003C0040A0
:100C2000014B80B298817047003C0040124A136823
:100C300023F00103F0B4054613600846136813F06F
:100C40000103FBD10D4C0E4A0E4E23734FF40047A7
:100C50004021576082F82F13B288256192B242F08A
:100C600002026061B280A3601DB1A1682B46F0BC96
:100C70001847F0BC704700BFB8600240544A0020DB
:100C800000E100E0003C00400D4A136823F001033E
:100C90001360136813F00103FBD10A480A4910B42A
:100CA00003738A88036122F00203084C1B041B0CA7
:100CB0004FF400428B80C4F884205DF8044B7047E9
:100CC000B8600240544A0020003C004000E100E0CF
:100CD0000E4A536810B51BB130BF5368002BFBD1CF
:100CE0000B4B4FF40044C3F8844050601160137BF9
:100CF00023B1074B4FF400425A6010BDFFF70CFEC2
:100D0000034B4FF400425A6010BD00BF544A00200C
:100D100000E100E00B4B5A680AB1002070470A4A14
:100D200010B54FF40044C2F88440586019601B7B32
:100D30002BB1054B4FF400425A60012010BDFFF764
:100D4000EBFDF6E7544A002000E100E0054A0649C1
:100D5000D36843F00063D3604B6803B1DCE50B73E9
:100D6000704700BF00600240544A0020704700BF37
:100D7000704700BF704700BF704700BF704700BF9B
:100D8000704700BF704700BF704700BF704700BF8B
:100D9000704700BF704700BF01207047704700BF19
:100DA000704700BF02484FF4804107F0ABBF00BF5F
:100DB000000C024010B5074C4FF48041204607F06C
:100DC000A3FF20464FF4805107F09EFF024B002204
:100DD0001A6010BD000C0240484A002010B50020E7
:100DE000094905F01DFF044650B9084A0848136830
:100DF0004FF480510133136007F084FF204610BD8B
:100E00004FF0FF3010BD00BF1CD90020484A002021
:100E1000000C024008B54FF4FA7000F003F9BDE889
:100E20000840FFF7DBBF00BF30B5224C034685B05A
:100E30000D464FF080400021236008F011F94FF07B
:100E400080400121002208F03BFD022D2FD0012D12
:100E500004BF42F6DF630293002305224FF0804077
:100E600001A9ADF80420ADF80C30ADF8063008F05B
:100E700049F84FF08040012108F044FD4FF08040D8
:100E8000012108F0C7F801210A464FF0804008F020
:100E900017FD4FF08040012108F0E2F82168002999
:100EA000FCD14FF0804008F0DBF805B030BD0B23DB
:100EB0000293D1E7704A0020704700BFF0B50120CF
:100EC0002E4D85B0014607F095FC0026022303272E
:100ED000284602A94FF4D0528DF80C3002928DF8BA
:100EE0000D708DF80E608DF80F6007F081FE2846BA
:100EF00009210A2207F016FF28460B210A2207F0D3
:100F000011FF28460A220C2107F00CFF01244FF4A0
:100F1000806302A9284602938DF80D708DF80E406B
:100F20008DF80F4007F064FE0A210A46284607F0B4
:100F3000F9FE21464FF4804007F08CFC21468020CA
:100F400007F064FC31464FF0006007F0E7FA4FF419
:100F5000A06007F0A1FA1C2301A88DF804308DF8D9
:100F600005608DF806408DF8074007F09FFA20468F
:100F7000214607F063FC05B0F0BD00BF0000024051
:100F800010B54FF4C06082B007F086FA012401A8C2
:100F900043238DF804308DF805408DF806408DF818
:100FA000074007F083FA1722022301A88DF80540B5
:100FB0008DF807408DF804208DF8063007F076FA9A
:100FC00002B010BD034811B1012107F09DBE0121FF
:100FD00007F098BE0008024030B5104D83B00420E1
:100FE000012107F007FC012400230222284669465C
:100FF0008DF805208DF806308DF8073000948DF8B7
:10100000044007F0F5FD2846214607F07BFE214607
:10101000C820FFF709FF03B030BD00BF0008024041
:10102000022101E70121FFE608B54FF080400121D0
:1010300008F05CFC00B908BD01214FF0804008F0C9
:1010400061FC064B196819B11A68013A1A6008BDAB
:101050004FF08040BDE8084008F002B8704A002018
:10106000286D0108000000204809002048090020E0
:10107000F4E1002000F048BD08B100F0ABBD7047BE
:10108000012910DD0139002302E001338B420AD02F
:1010900010F8012BFF2AF8D1027802F0E002E02AD2
:1010A000F3D1184670474FF0FF30704718B1D0F8B1
:1010B000D037032B08D000230B604B608B60CB60D4
:1010C0000B614B618B61704770B490F8D447D0F8D6
:1010D000B8670B4AD0F8BC57D0F8C0070E6004EBD5
:1010E000440602EB46021026B2F904208C6102FB92
:1010F00005F24D60CE600A6188604B6170BC70473C
:1011000050340108A0B138B50D461146044600F030
:10111000EBFA013009D0D4F8D037032B05D12046A3
:101120002946FFF7C3FF002038BD6FF0050038BD2A
:101130006FF00400704700BF002800F02B822DE9FB
:10114000F04F87B08946096802930746164600F0BB
:10115000CBFAB0F10008C0F2FE80D9F8001041448B
:10116000C9F80010384600F0B5FBB0F1000CC0F231
:101170004181D9F80000316808EB0C0E6044CEEBD9
:101180000101C9F800003160D7F8B837002B48D109
:10119000D7F8B037002B47D10123C7F8B0373168F3
:1011A0000129CEEB000E034620DD01F1FF3A0024B9
:1011B00002E00134544519D01D4601332A78FF2A34
:1011C000F7D11A7802F0E002E02AF2D1002C2A4688
:1011D0000CDB9EF80030FF2B00F0C2806FF00202A3
:1011E000121B1144012905F10303DEDC4FF0FF332C
:1011F000C7F8B437D7F8C417D7F8C827D7F8BC371B
:1012000002FB01F203FB02F2002A07DD029B002130
:1012100003EB420223F8021B9342FBD16FF0020062
:101220009BE0D7F8B03743B1D7F8B447384600F061
:101230004FFA2044C7F8CC073168109B002B00F010
:10124000BC80D7F8D837C7F8CC17002B6FD100294E
:101250006DDDC7F8DC173368D9F800805B1A4144AC
:10126000C9F800103360D7F8C437D7F8DC5700202E
:1012700083424FEAC50505906FDD07F5FC638346A1
:101280000393B946D9F8BC37002B40F32181059C64
:10129000DDF80CA0002716E0AC422FDC0197CDF85A
:1012A00000B000F0E1FF002807F10107A6EBC0063F
:1012B0008044C0F23E81059CD9F8BC37361BBB4246
:1012C000354440F3058141462B4605AACDF800B0D0
:1012D0000197484602F0DAFB059E5AF8043B864621
:1012E000C4EBCE043444F0442D1BBEF1000FA3EB3D
:1012F000040405AA484641462346CDDAD9F8C41766
:10130000D9F8C827D9F8BC3702FB01F203FB02F277
:10131000002A07DD029B002103EB420223F8021B97
:101320009342FBD16FF0070007B0BDE8F08FD7F80C
:10133000C417D7F8C827D7F8BC3702FB01F203FB64
:1013400002F2002A07DD029B002103EB420223F890
:10135000021B9342FBD16FF0050007B0BDE8F08F90
:1013600095F801A09EF801309A457FF437AF9EF8BA
:1013700002A0AB788AEA030313F0FC0F7FF42EAFD0
:101380001AF0020F18BF05F1FF32141A002CC7F82B
:10139000B447FFF62FAFA044D7F8C037D7F8C4172B
:1013A000D7F8C827E04403FB08F3DB0002FB01F297
:1013B00093FBF2F3C7F8B83738E7D7F8CC278A425F
:1013C00031DDD7F8C417D7F8C827D7F8BC3702FBE8
:1013D00001F203FB02F2002A07DD029B109903EBE6
:1013E000420223F8021B9342FBD14FF0FF3007B0BB
:1013F000BDE8F08FD7F8C417D7F8C827D7F8BC379F
:1014000002FB01F203FB02F2002A07DD029B00212E
:1014100003EB420223F8021B9342FBD16FF006005C
:1014200007B0BDE8F08FD7F8DC37D7F8D80783428C
:1014300022DB1B1AF91807F11C0802461C31404632
:101440000DF00CF9D7F8D837D9F80010D7F8CC2719
:10145000F8181C300BF004FFD7F8CC17D7F8D837A2
:10146000D9F800200B44C7F8DC3733680A445B1A0C
:10147000C9F800203360F6E6F818D9F800101C30DF
:101480000BF0EEFED7F8CC17D7F8DC37D9F80020F0
:101490000B44C7F8DC3733680A445B1AC9F80020EC
:1014A0003360D7F8C417D7F8C827D7F8BC3702FB82
:1014B00001F103FB01F1002907DD029A109B02EB09
:1014C000410122F8023B8A42FBD16FF0010044E760
:1014D0004846594600F080FB00285EDBD9F8BC374F
:1014E000002BC8BF002404DC3AE0D9F8BC37A34283
:1014F00036DD22464846594601F0E8FB002804F153
:101500000104F2DAD9F8C417D9F8C827D9F8BC37DA
:1015100002FB01F203FB02F3002B07DD029A00211C
:1015200002EB430322F8021B9A42FBD16FF00A0040
:1015300013E7D9F8C417D9F8C827D9F8BC3702FB84
:1015400001F203FB02F2002A07DD029B002103EBFC
:10155000420223F8021B9342FBD16FF00800FCE625
:10156000D9F8C82702FB0BF203FB02F1029B4846A5
:1015700003EB410103F050F9002825DB039AD9F869
:10158000C4370BF1010B08325B4503923FF77AAE8B
:101590000020E2E66FF004007047D9F8C417D9F8CC
:1015A000C827D9F8BC3702FB01F203FB02F3002B7A
:1015B00007DD029A002102EB430322F8021B9A4244
:1015C000FBD16FF00900C8E6D9F8C417D9F8C827CD
:1015D000D9F8BC3702FB01F203FB02F3002B07DD55
:1015E000029A002102EB430322F8021B9A42FBD12C
:1015F0006FF00B00B1E600BF00230260C1604360E2
:1016000083607047034640689A6801F01F01F0B498
:1016100000FA01F4C1F11F05511AE84000295C608D
:101620004FEA5000996001DBF0BC7047DE68032E82
:10163000C1F1000120DC00225A60002E3BD01C6862
:10164000A71901341C6014F8015C2A431202BC4241
:101650005A60F6D1C6F10304E400A240C1F12004AF
:1016600022FA04F48A400025C1EBC606DD6020435F
:101670009E605A60F0BC70471C682546621C1A6068
:1016800015F8022B1D6012065A606778E51C42EAC5
:1016900007425A601D60A778251D42EA07225A605A
:1016A0001D60E478351F1443C1F1200604FA01F2ED
:1016B000DD60F440DBE732463446D4E710B404681A
:1016C0008368611AC3EBC100801A5DF8044B704750
:1016D00030B1036823B15869003018BF012070474A
:1016E0004FF0FF30704700BF002800F0E48003682F
:1016F000002B00F0E0800A78FF2A40F0DC802DE922
:10170000F04F4A7802F0E004E02C83B040F0CE8045
:10171000D20894071ABF02F0010282F001020222ED
:101720001A704D78C5F34105C5F10409C3F804905A
:101730004E7806F0010686F001049C608F780094D4
:101740003F09DF608C78C4F381041C6191F802804A
:10175000C8F340065E6191F802E001960EF0010EBA
:10176000C3F818E091F803E04FEA9E1E83F81CE0EE
:1017700091F803C0CCF3011CC3F820C091F803C05A
:10178000CCF3C00CC3F824C091F803C0CCF3800C98
:10179000C3F828C091F803C0032C0CF0030CC3F865
:1017A0002CC000F08380B9F1040F7FD00F2F7DD0C3
:1017B0004FF0DE0C0CFB02FC4FF04A0BDFF804A1EB
:1017C0000BFB04CCD444BEF1010FC3F834C006D0E7
:1017D0004FF0000CBEF1030FC3F820C063D04FF0F0
:1017E000020A4FEA420808EB020CC5F103050CEBB4
:1017F000040BC0F8BCA7DFF8D0A0C0F8D097002A2F
:101800000CEB050980F8D4272C4A5AF82B6032F9E2
:101810001920C0F8C0670CBF4FF0020A4FF0010A50
:10182000C0F8C4A792FBFAF2C0F8C82757B3CCEBB4
:101830000C1CC4EB041464443C44C5EB0515BEF118
:10184000030F0CBFC64608F1010E1D4ADFF87C905D
:1018500032F9142039F91E40009E65442F44DFF808
:1018600070C0121B3CF91740C4EB441504EB85040F
:10187000043A019DA2EB46021544E400C0F8CC579F
:10188000C0F8B847009A2AB9009A1A63042003B036
:10189000BDE8F08F08794A7942EA002206201A63EF
:1018A00003B0BDE8F08F4FF0010A9AE74FF0FF3028
:1018B00003B0BDE8F08F4FF0FF307047503401089F
:1018C0002C33010890300108743501083C340108BC
:1018D00064340108002800F013812DE9F04F0768F7
:1018E00087B0002F00F0098143680093002B00F0BF
:1018F00004813E783B7F02918046002E00F09E805E
:10190000032B0CBF0923112302AD1A4608210193B2
:1019100028460023059203930493FFF773FE3B7F51
:10192000009C032B20600CBF012102212846FFF7F9
:1019300069FE6060D8F8C427002A77DD4FF00009FF
:10194000DDF800A0D8F8BC37CB46002B68DD544644
:1019500000260C212846FFF755FE0921A0622846E3
:10196000FFF750FE0821E0622846FFF74BFE3B7868
:101970002063002B0CBF042109212846FFF742FEFB
:10198000012160632846FFF73DFEA063002800F0B8
:10199000848002212846FFF735FE0121E0632846B6
:1019A000FFF730FE052120642846FFF72BFE0521B6
:1019B00060642846FFF726FE0321A064C4F84CB0FB
:1019C0002846FFF71FFE032120652846FFF71AFE71
:1019D000032160652846FFF715FEE36BA065002B29
:1019E0007ED1E26DE362A3626363C2F114032366F6
:1019F0003B78002B6FD00020606601212846FFF75E
:101A000001FE0121A0662846FFF7FCFDE066D8F83C
:101A1000BC370136B34204F148049ADCD8F8C42735
:101A200009F101094A450AF1900A8EDC009B0198F0
:101A30001B68C8F8D83707B0BDE8F08F032B02AD9C
:101A40000CBF1123202309212846019305930396F7
:101A50000496FFF7D7FD3B7F009C032B20600CBF53
:101A6000052103212846FFF7CDFDD8F8BC3760607B
:101A7000002B7FF75FAF009B1C1D04F11009284667
:101A80000121FFF7BFFD44F8040F4C45F7D1D8F80A
:101A9000BC370136B342F0DC4CE7E063206405213B
:101AA0002846FFF7AFFD052160642846FFF7AAFD31
:101AB0000521A0642846FFF7A5FD0421E06428461F
:101AC000FFF7A0FD0321E0652846FFF79BFD3B786B
:101AD0002066002B8FD128460121FFF793FD8BE76D
:101AE000022B03D00723E3650D2380E7236C002B33
:101AF000F8D10823E3650C2379E74FF0FF309AE72C
:101B00004FF0FF30704700BF274A284B284970B478
:101B100002F68C20136102F5FE6602F6280502F536
:101B2000176403F5527353619161166055609460B8
:101B3000D06002F2EF73002102F6270203F8011FC2
:101B40009342FBD11B4B002103F5A47203F8011F44
:101B50009342FBD1184B002103F58E7203F8011F4D
:101B60009342FBD1154B1649002203F8012F8B42FB
:101B7000FBD1144B002103F5527203F8011F93426D
:101B8000FBD1114B002103F5D95203F8011F9342F9
:101B9000FBD10E4B0E49002203F8012F8B42FBD1E3
:101BA000014870BC704700BF744A002010670020D5
:101BB000788500209B520020E3530020FF54002032
:101BC0000F6700200F670020576A002077850020EC
:101BD0007BA70020704700BF002800F039812DE965
:101BE000F04FD0F800A08FB0BAF1000F00F02D81B7
:101BF00043680893002B00F0288183680793002B2B
:101C000000F02381C568002D00F01F810369069351
:101C10001A46002B00F01981D0F8BC370A91002633
:101C200002F54672B3420D960C96099233DD0A9A7C
:101C3000089BDDF824B00B9502EBC20803EB0818F3
:101C4000079BC2EB421705F5905908F1280803EBF2
:101C50008707AC4609F104093D466446474680467D
:101C600000970195CDF808B02046A9F1040253462B
:101C7000069900F0BBF949F8040FD8F8BC370136D3
:101C8000B34207F1480705F13E050BF1180B04F5C7
:101C90001064E5DC0B9DDAF8200000286ED041F2DC
:101CA0000823EB58002B40F38B8041F20C23EB58B8
:101CB000002B40F38580430800F0CD80C2070ED58D
:101CC000069BD3F83033002B40F0B380069BDAF844
:101CD0003420D3F84433013332F9131008E005F50A
:101CE000905341F204221968AB589942B8BF194683
:101CF0000CAC2846224602F071FADAF82000C3073D
:101D000020D505F590539AF800201968002A38D19B
:101D10000A9E089B06EBC602401003EB0212099BC9
:101D200001900093D2F888200292079A0394C6EBA0
:101D3000461302EB830328463E33524602F082FAF2
:101D4000DAF82000D0B105F5905641F2042430684D
:101D500029590C9A0D9BB2FA82F2B3FA83F341F23D
:101D6000082E814241F20C27B8BF0146013A013BDF
:101D700045F80E20EB513160295100200FB0BDE82D
:101D8000F08F0A9F089B07EBC70203EB0212079B29
:101D90004010029003F1F8060798099B0093019602
:101DA000C7EB4713D2F88820039200EB83033E333E
:101DB00028460494524602F0D5FBDAF82000C1E729
:101DC00005F590531C68002C16DD04F18044013C9D
:101DD000224905EB84042B1F6FF0404602E0A3422A
:101DE000196009D053F8042F8A42F8DBB2F1804F12
:101DF000A8BF1E60A342F5D141F20423EB58002B8B
:101E00007FF759AF03F23F2305EB8304134905F62F
:101E1000FC036FF0404603E01960A3423FF44BAF70
:101E200053F8042F8A42F7DBB2F1804FA8BF1E603F
:101E3000F3E7069BD3F84023DAF8343003EB420390
:101E4000B3F9301001EB410152E74FF0FF3095E755
:101E50004FF0FF30704701200CAC52E7010000C08A
:101E60002DE9F04FDFF880E103F003049B101F2BF6
:101E70000EF1280CA8BF1F230EEB84050CEB841C6D
:101E800089B01B2BD8BFDF1C0646DCF80840D5F80C
:101E900028010290D4BF27EAE7771F27DCF80C005F
:101EA000DCF8045000933C413D41069440FA07F7AA
:101EB0005C42002005950797049003940EE008AB60
:101EC00003EB870757F8105C85EAE47707EBD474D7
:101ED000013A40EA050041F8044B77D056F8044B2C
:101EE00024F00047032FEADD0F2F09DC009B5CF88C
:101EF0002750002BB5BF039B009B9D401D41E3E78E
:101F00003F2F0CDC0EEB8707029DD7F8F87087FB9C
:101F10000585009BDF1E002F4EDB3D41D4E77D048D
:101F2000B5F1006FBABF7D0504230023B5F1005F52
:101F3000019303DA019B0233AD000193B5F1804FA9
:101F400003DA019B01336D000193234F234BBD4204
:101F5000D8BF9A46224F234BC8BFBA46A3F11407F5
:101F6000CCBF9846B846A9468AFB09B9D8F80430D0
:101F7000AA46994489FB0ABAD8F80830A9469A4477
:101F80008AFB09B9D8F80C30994489FB05A5019B57
:101F9000D8F810800EEB83074544D7F8F88185FB0D
:101FA00008984FEAC808029D88FB0595D7F8187273
:101FB000009BDF1B002FB0DA7F426FF0004343FA33
:101FC00007F8454505DD6FF000457DE709B0BDE840
:101FD000F08FBD4078E700BF9979825AA9BDA0294A
:101FE00063218510AC350108983501082DE9F04FC3
:101FF00091B01A9C019064690691022C08920A9390
:1020000000F0F7800D2307934FF0160A1A9B0A9AE7
:102010001B6C116A1A9A01335B00002004934B0871
:1020200092680D9040F01B81C2F1D00303931B9B7B
:10203000CDF814A04FF0000B5F1EDFF82882029746
:102040005D46D946DDF828A002E0059B9E422BDACA
:10205000DAF83420029932F9154011F801EF1A9B91
:10206000029102EB45020199B2F90220DB6B01EB10
:102070008900141B6E1C0146224608EB060C0BB1AE
:102080001CF8013C049F7344BE46039F0EFB037380
:10209000FFF7E6FEA1444BEA000B00B10D95089B4B
:1020A0001B6899453546D0DB1C9A0D9B5361002374
:1020B0001360D360936053601361079B0B2B70DC3C
:1020C00007991B980D914B005A18163282180792E7
:1020D0001A9A0E9124320F910B92CDF814900C465F
:1020E0000A9ADDF81C90526BDDF82CA013440027EF
:1020F000B3F93060B3F92E30F61A631C0993059BCF
:102100009B0002932346B5004C46B8469946039976
:102110005AF8043F14F8012F01EBC3030299781811
:10212000049901FB0233019A1044069AD1193246F0
:10213000FFF796FE2F444BEA000B10B10DAB43F8AE
:10214000289008F10108B8F1030FE0D1059A06EBD9
:1021500046031A44002E059216DD069A0199029B49
:1021600002EBC6060B441C4615443146131F53F8B8
:10217000042F226055F8042B626056F8042BA260ED
:102180008D4204F10C04F2D1089B059A1B689A4217
:102190002DDA079B099C03330D2C079307D06300AE
:1021A0009EE7BBFA8BF0013811B0BDE8F08FDDF887
:1021B0001490089B0E99C3F800901A9B1C9C986978
:1021C0000D9B0F9A6360002814BF022001208B42F0
:1021D000B8BF0B469342B8BF13462060BBFA8BF0E2
:1021E0000138A1602361E26011B0BDE8F08F914633
:1021F000DFE71A9B9B69C3B91A9A106C0A9A116A95
:102200001A9A0130400049109268049019D01C9924
:10221000079399460B604B61CB608B604B600B6101
:10222000C2F1D2030393CB464AE70A9B1B78002BEB
:102230004FF003030CBF4FF0080A4FF0060A079354
:10224000E4E61C9B079119605961D9609960596057
:102250001961C2F1D003894603938B4630E7023AF5
:10226000E2E600BFD03701082DE9F04F9BB0139193
:102270000A920393002800F0D1800168002900F041
:10228000CD8043680B931C46002B00F0C780836809
:10229000002B00F0C380C3681093002B00F0BE80B9
:1022A000039B002BC0F2BA80249B249A2598DB0064
:1022B00011931344259AD2001B010D92024403EBA3
:1022C000C2022244936B002B40F09382249A119B0C
:1022D000259813440D9A1B01024403EBC2030B9A89
:1022E00013444A6BD96D1B6E01310B44013332F933
:1022F000116032F913000D9B259A109F9918249AAA
:10230000119B1344CC001B010B9AE5181544259A28
:10231000ED6A07EB820202F59052174615921AAA4F
:10232000079204F14002079CBE46002744F8107D46
:102330000794109C6D00B5F5107F04EB01240B99F8
:102340000E94A8BF4FF410751A44A8420A440A9B81
:10235000CEF80050A8BF28460992AE42139A0592C3
:10236000A8BF2E4603221B6814951890179619953E
:1023700008920E9A02EB8705099AF41B52F8040F93
:102380000992002C26DD039A002A47DBB74A059EF6
:1023900002EBC0015A420B790193B54B53F8201060
:1023A000B24B12F0070253F8303006933BD033782B
:1023B000C2F12000834001980136002837D103463E
:1023C0002A46002145F8231002339C42516002F155
:1023D0000802F6DC0021039881421FDC0A9C236876
:1023E000CA18411A0598039102F0070300EBE202B4
:1023F00007990592089A23600431013A07910892DF
:1024000000F03A810F684E68B3E7DDF808B0039B2F
:10241000C9EB02015944591A0029DCDA4FF0FF30A8
:102420001BB0BDE8F08F019813460028C7D0914833
:1024300000EB410A0398C2EB000B0198012800F061
:102440003A82019902390129E8D80698471CC0F15F
:1024500020000F9058465146D3464FF000090C9784
:102460008246BAF10F0F4FDD37787078C2F1180C41
:10247000C2F1100E07FA0CF700FA0EF01032074303
:102480000A2AAAF1100A06F1020643EA0703E8DD68
:10249000CDF808A0049606E0121A0A2A03FA00F3FF
:1024A00001EB47012ADD088800F00F00C0F120078A
:1024B00023FA07F7013731F817705FEA173EEBD0C0
:1024C000C7F30320C7F303170F2FCEEB020203FA63
:1024D0000EF3014641D0002F42D10F284AD00029E7
:1024E0004CD14A459ADB2846023C002C40F8087B38
:1024F00069608ADD0A2A05465946D4DCDDF808A061
:10250000049EBAF10F0FAFDC0AEB0200002885DD54
:10251000BAF1000F11DD3778C2F1180E07FA0EF785
:10252000BAF1080F43EA070340F3C3817778C2F199
:10253000100207FA02F213430236421E4FF0004720
:1025400047FA02F24FF0000A13404FF00B0900F176
:102550000B02CDF808A00496A5E7019E032E13D028
:1025600003F0004E0F2802F1FF324EEA07074FEA50
:102570004303B4D10199032946D0014603F000403A
:10258000013A01435B00ACE70C9E002818BF0136FE
:10259000B246029E9719BA453FF740AF52452BDA33
:1025A000D643049F129606EB0A0807EBD8083E466E
:1025B00008F10108C2F1180CBE461EF8017B07FAAB
:1025C0000CF7C64543EA0703ACF1080CF5D1B44655
:1025D000129E56444FEAD60A029E0AF1010EA6F157
:1025E00008076646764408320496B7EBCA0602EB43
:1025F000CA02029600F153810F9E23FA06F7069E47
:102600000F37921BB34066E702990C9E51188E4219
:102610003FF704AF964240F3C7810699049EC2EB90
:10262000010C4FEADC0C0CF1010EB644C2F11800AB
:1026300016F8011B8140764543EA0103A0F108002A
:10264000F6D1029908390832B1EBCC0102EBCC0289
:10265000029100F11A810F990698CDF810E023FA43
:1026600001F1121A0F31834039E700BF48380108E1
:1026700048390108C83901082499119A25980A4453
:102680000D991201014402EBC1020B9914981144F7
:102690000A460E99D26E01EB8004059902910399C6
:1026A000002940F38481C348C34950F822A051F85F
:1026B00022005B4213F0070140F0B580089A149B9A
:1026C000DFF8FC92C3F50F7E039B4FF0000CC1EBCB
:1026D000030B059B0EF1010EC0F1200867467745FC
:1026E0005BDABBF10F0F40F3A98058781D78019099
:1026F000C1F11806C1F11000B5400646019810312D
:10270000B040284302330929ABF1100B019342EA90
:10271000000240F3918004F1100010E00437774587
:1027200040F8084C40F8106C40F80C5C40F8043C51
:10273000044680F28180092900F110007CDD22FA34
:1027400008F3534419F803301C09C3F3C006091BEE
:10275000A2402EB102F00046013946F001065200B7
:10276000C3F380052DB102F00045013945F00105A4
:102770005200C3F340042CB102F00044013944F08C
:102780000104520013F0010305D002F000430139A7
:1027900043F0010352008C45C0DD159A13681F44B5
:1027A000B7F5107F176014DA25990D9B10980B442C
:1027B0001A4607EB831303F18043013B00EB02222F
:1027C00000EB830302F6FC02002143F8041F93424E
:1027D000FBD10A9A0399136819440B46029901EB3D
:1027E000E300139903F00703401A13601BB0BDE820
:1027F000F08FD36B022B7FF469AD136C002B40F08C
:10280000E180D26D496B0132A3F1AA3383FB02034D
:10281000A3EBE27301EB43034FF41070B3F92E60A6
:1028200006EB460667E5029B059D1A780135C1F166
:10283000200305959A4042E7019B50E70BEB01000E
:102840000028AADDBBF1000F40F3A5801D78C1F17F
:102850001806B540BBF1080F42EA050240F39F801D
:102860005D78C1F1100105FA01F102330A430193C9
:102870004FF00041431E41FA03F31A4000F10A01F0
:102880004FF0000B4FF00A0C45E70A44511E4FF081
:10289000004040FA01F10B4000210291DBE6324496
:1028A000571E4FF0004646FA07F700263B400296B7
:1028B000A2E6013641E6414830F8111001F00F015F
:1028C000C1F1200100204FF00049AC46BBF10F0FD1
:1028D0003FDD37787578C2F11808C2F1100E07FA9B
:1028E00008F705FA0EF53D43ABF1100B02362B430A
:1028F00010320CF1080EB0461BE037435B00013A82
:10290000C5F3032503F0004C1DB14CEA05055B003F
:10291000013A8242A4F10204F446FFF67FAD002C96
:102920004EF8087C4EF8045C0EF1080E6CDD0A2AA5
:1029300033DD23FA01F50AEB45056D882F0BBB400B
:10294000C5F30316D21B03F00047002ED5D137463E
:10295000D6E70BEB020000287FF760ADBBF1000F5C
:102960000FDD3578C2F11807BD40BBF1080F43EA0F
:10297000050317DD7578C2F1100205FA02F2134360
:102980000236421E49FA02F213404FF0000B00F1EA
:102990000B020B20ADE701936AE7464696E7013349
:1029A000019365E70136ECE7DDF810E053E6089F98
:1029B000F3E600BFF0370108E8370108C83901081D
:1029C000F83701080B7893B9249A119B2598134482
:1029D0000D9A1B01024403EBC2030B9A13444A6B8A
:1029E000DB6D01334FF4107032F9136083E44A6BEE
:1029F000B2F93630B2F93410B2F90C605B1A06EB5A
:102A000043064FF4107076E4111A039B5944591A87
:102A100002E500BF022A2DE9F043484B1FD002EB2C
:102A2000C20C03EB0C1C0CF148040CF18C0E0438A6
:102A30000CF16C0C01F1440750F8043F5EF80459A6
:102A400054F8046B1A4686FB028241F8042B85FB7E
:102A50000323644547F80439EED1BDE8F08382686A
:102A6000D3F838E114468EFB04248269D3F8205150
:102A700085FB026222440A604268D3F83C61154635
:102A800086FB0525C269D3F8244184FB02722A44DF
:102A90004A600268D3F84051174685FB0727026A4F
:102AA000D3F8284184FB02C23A448A600268D3F812
:102AB0004441944684FB0C2C026AD3F82C7187FBAA
:102AC00002826244CA604268D3F848C190468CFBD7
:102AD0000828C269D3F8307187FB029242440A6128
:102AE0008268D3F84C71904687FB08288269D3F836
:102AF000343183FB029242444A6143698EFB0323D3
:102B00008B61036986FB0323CB61C36885FB0323C9
:102B10000B62C36884FB03234B6203698CFB0323B2
:102B20008B62426987FB02320023CA624B640B64EA
:102B3000CB638B634B630B63BDE8F083EC610108EF
:102B40002DE9F0478646ABBB12F001007BD0DEF8E2
:102B50008017DEF88028DEF88001DEF88073DEF86A
:102B60008064DEF88055DEF88046C0F1000CC1F1CB
:102B70000009DEF88002CEF880C15142DEF88020E4
:102B8000CEF88097C0F100087F4276426D426442E1
:102B900052421846CEF88082CEF88073CEF8806418
:102BA000CEF88055CEF88046CEF88018CEF880203A
:102BB000BDE8F087C3F11F060127B74012F00100FE
:102BC00007F1FF370EF180023FD10EF5106C52F87D
:102BD000804CE51744FA06F8454518BF85EA070416
:102BE00004FA03F542F8805CDEF880404FEAE479AD
:102BF00044FA06FAD14518BF87EA09049C404FEA17
:102C0000E578CEF880404FEAE47988EA0505C8EB1C
:102C1000050889EA04040D68C9EB040444EA0804C1
:102C200045FA06F94FEAE578C84518BF87EA08056E
:102C30000EF5807E9D40E64502F5807240EA040074
:102C400041F8045BC3D1BDE8F08701F1240C0020FA
:102C500052F8804CE51744FA06F8454518BF85EA56
:102C6000070404FA03F842F8808CDEF880506C42C6
:102C7000E51744FA06FA55454FEAE87918BF87EA9E
:102C800005049C4089EA0808CEF88040C9EB080892
:102C90004FEAE4790D6889EA0404C9EB040444EAC4
:102CA000080445FA06F94FEAE578C84518BF87EAEF
:102CB00008059D4041F8045B614502F580720EF500
:102CC000807E40EA0400C3D1BDE8F0872DE9F04FD3
:102CD000C7B017460D910C92002800F0CF8603680C
:102CE000002B00F0CB8644681A942546002C00F097
:102CF000C586C4680E942646002C00F0BF86406945
:102D00000B90002800F0BA861A785B6BDFF830E38E
:102D10000846C900002A1C9101EB00024FEAC701D6
:102D20000C4619914FEA02120CBF08210621E01946
:102D300002EBC00233F911302A448EFB0315D91778
:102D4000D36BC1EBA50109B2022B189100F0758677
:102D500007F5906340F2262256F82330934240F361
:102D60000B8540F236230F9320231F220493199BD7
:102D70000C9959180E9B002A03EB0123129340F380
:102D80007286AE4BD9680091196901915969029117
:102D900099690391D9690591196A0691596AD86BA5
:102DA000D3F800E0D3F804A0D3F808B00791DF6AA5
:102DB000996A1E6B5D6B9C6B129B089102EBC202C1
:102DC00003EBC2020A9209905A6CD3F848C011462C
:102DD0008EFB0181E0468AFB0898C8EB010149009F
:102DE00059648EFB0C1C8AFB02120CEB02011A6C5C
:102DF000D3F84CC04900996411468BFB0181E04631
:102E0000009880FB0898C8EB0101490019648BFB0E
:102E10000C1C80FB02120CEB0201DA6BD3F850C0E1
:102E200001984900D964114680FB0181E04602986F
:102E300080FB0898C8EB01014900D963019880FB29
:102E40000C1C029880FB02120CEB02019A6BD3F867
:102E500054C0039849001965114680FB0181E04682
:102E6000059880FB0898C8EB010149009963039815
:102E700080FB0C1C059880FB02120CEB02015A6BC4
:102E8000D3F858C0069849005965114680FB018166
:102E9000E046079880FB0898C8EB01014900596398
:102EA000069880FB0C1C079880FB02120CEB0201B9
:102EB0001A6BD3F85CC0089849009965114680FBED
:102EC0000181E04687FB0898C8EB010149001963BE
:102ED00080FB0C1C87FB02120CEB0201DA6AD3F8B0
:102EE00060C04900D965114686FB0181E04685FB3B
:102EF0000898C8EB01014900D96286FB0C1C85FBD0
:102F000002120CEB02019A6AD3F864C049001966F8
:102F1000114684FB0181E046099880FB0898C8EBC4
:102F200001014900996284FB0C1C80FB021262447F
:102F300052005A660A9A483393427FF445AF0D9A7D
:102F40001C9B0C991344199A1B010A4403EBC203FE
:102F50001A9A13441C6C0C9B0E9D1F9399000D44F0
:102F600005F59056A8460B9D33680D9A1C9F20923C
:102F700069180D460F9932481B959942B8BF1946FA
:102F8000BA1813010F461F9A19993760114405F5B5
:102F9000D85C07F11102002C41F2082E189DCDF8E3
:102FA00078C008BF002580FB02C0D2171895C2EB7D
:102FB000A00258F80E500B9C119503EBC1031B9D0A
:102FC000169241F608371A9AEF590D9741F61036C6
:102FD000283304EBC114D318AF590A931E9E0E97E1
:102FE00004F590530B9C3668179604EB01220C9362
:102FF0001D9204990029AE4640F31985119D029255
:10300000129A0593C5F107010020062D109102F1D7
:103010003C02C8BF014634AB0B900F91039006925F
:1030200001930A9A9369526900925BB1134603991E
:10303000189A8A42C8BF0023009303E05C6001082D
:10304000398EE3380D9B0E9A03998A42C8BF00233C
:103050000993119B062B00F33884059A069CDDF832
:1030600004E0DDF8408000252B462BAF02F120065E
:10307000A4F1480CA2686068316842FA08F2D21ADA
:1030800040FA08F0083C551B831A41FA08F16445E0
:103090004EF8045D46F8041947F8043DEAD1249D32
:1030A000269B2A98239F229CDDF89C90DDF8A48023
:1030B0002899DDF894B0C3EB050AC0EB0A0A2B444B
:1030C00028442B9D641007EB090607EB08026D10DE
:1030D000C1EB040E0894B11A0795864C84FB0B5B78
:1030E000C9EB0709C8EB090984FB0959824C1F4643
:1030F00084FB0757814C054684FB05C57E4CC01AEE
:1031000084FB00C07D4C84FB03C304F1705404F5C0
:103110004C248C4604F2CB2484FB0C8C784C84FB2E
:103120000282A4F12F54A4F5EA24E93C84FB06862C
:10313000734C84FB01815B00C3EB4003089C28981F
:103140006D0004EB600452004FEA4B0005EB4707AB
:1031500002EB4C02490004EB000C241AC1EB4606BA
:103160000CEB0708F9182744BF1A4FEA49090897DA
:103170000EEB6A07CAEB0E0A07EB090EC9EB07074D
:103180002997089F2D982C9DDDF8BCB02A97904474
:10319000309FCDF888800CEB030904EB0308B21ACA
:1031A000339BCDF88CE0C1EB0C0C641AA41A06EB2F
:1031B0000801624405EB0708CBEB000C329F249119
:1031C00027923199259400EB0B02C3EB0C0C1844A9
:1031D000079BCDF898A0C6EB0906EF192896C1EB1E
:1031E000030EC7EB08062E99424C84FB0131309C3C
:1031F0002D1B329CC4EB050B3E4C84FB0B3B3E4D20
:10320000134685FB03433D4D814685FB09493A4CF6
:10321000851A84FB0505394C84FB020204F17054C5
:1032200004F54C24B24604F2CB2484FB0A0A344C45
:1032300084FB0707A4F12F54A4F5EA24E93C84FB9E
:1032400008082F4C84FB06064FEA490404EB4304AC
:103250003198079B520003EB6009C2EB45024B001B
:1032600009EB03057900C3EB09037000A618C0EB56
:1032700048004FEA4B0701EB4A0105EB04090EEB4E
:103280006C0B03EB02082A44AD1B9E1B2344C1EBCD
:10329000000A01EB09040BEB0709C7EB0B0B5F1AE4
:1032A000099B2B94CCEB0E0E8044CAEB06065544CA
:1032B000121ACDF8BCE0CDF8B090CDF8C8B0CDF87A
:1032C000B4802E96309531923397002B40F0A18236
:1032D000009B002B40F09D82DFF828E0089ADDF883
:1032E000148002981E4635463B46AEF10C090DF19E
:1032F000A80C0EE0A1EBD96E8BBE0D627E1A3A16B9
:10330000322E0E7E185B0108DCF82430DCF8002039
:103310008036ACF1040C59F8041981FB0343921078
:103320009918D8F8004048F8041B5EF8081C9A1A4F
:1033300067420B46BF1A87FB03135EF8041C02EBBF
:1033400083030A4687FB0212C4EB82024FEAE27A49
:10335000D9178AEA0204CAEB040A81EA0304871B2C
:10336000611A4AEA0101B6F5806F83510EF1080E29
:10337000C7F8802845EA0105C6D1029F059E039C37
:103380000F9B224638463146FFF7DAFB069A483251
:1033900006923A46043202923246243205920B9A41
:1033A0002843024323460B92049A0133934203932A
:1033B0007FF437AE02EBC203129A02EBC302129201
:1033C0000C9A02EB83030C93169B049A19469142C4
:1033D000134640F3968221921D9ADDF848A002EB35
:1033E00083030F930C9B0A9334AB01930D9B0E9AAE
:1033F00004998A42C8BF00230093119B062B00F357
:103400005E82C3F107031C4612930A9B1A462432BC
:1034100050460AF104011492154651F8042C224139
:1034200041F8042C42682241426053F8042B2241A7
:10343000AB4201F1080100F1080043F8042CECD183
:10344000DAF83C70DAF83020DAF82410DAF81800EC
:10345000DAF80C30DAF80040CF4DD21B891A401A46
:103460001B1AC91BC3EB040C5B1A4FEA6C0C5B10F4
:1034700085FB00400CEB6209400000EB090BC2EB3E
:103480000C0CC0EB090985FB0121490003EB670E19
:1034900001EB0E05C14880FB0525C148DA1BAD00D4
:1034A00080FB0232C1EB0E0E9200BE4981FB0E3E44
:1034B000DAF84060DAF83430DAF82800DAF81C403C
:1034C000DAF810109B1BC01A0CEB0208241AC2EB8E
:1034D0000C0CDAF80420CDF88C80801B4FEA8E0E9D
:1034E000091BCEEB0907561A029009EB0E02091AC6
:1034F000C5EB0B090BEB0500CDF898C07610491011
:10350000069224920597259708902290CDF89C90DA
:10351000A14D85FB042406EB630864000298F61AAB
:1035200004EB080CC4EB080785FB0030DAF84030E8
:103530009A4C400001EB630800EB080584FB05355D
:10354000DAF84030CB1A1A46AD00954981FB0232B9
:103550009449C0EB0808930081FB0828DAF844E09E
:10356000DAF83840DAF82C10DAF82000DAF814200B
:10357000CEEB0404091B401A0294DAF8084006EB6B
:10358000030B121A4FEA8808CEEB0101F31AA41AB2
:1035900007EB0806521ACDF8A4B0C8EB07080CEBED
:1035A000050BC5EB0C0509952D95CDF84CB02C936A
:1035B0002A96CDF8AC8064105210CDF8A0B0764DAC
:1035C00085FB0030029E400004EB660300EB030C19
:1035D000A41B1F1A85FB0131490002EB6E03C818BA
:1035E0006E4E86FB00506E4ECEEB0202800086FBD4
:1035F00002525B1A19464FEA820E6A4E86FB01316F
:103600008B00DDF804B0009A0CEB0001FD1810915E
:10361000FB1A04EB0E06C0EB0C07CEEB0404594674
:1036200031930A98109B309533972E932F963294AE
:10363000FFF7F0F9032322A90293CDF81C90002391
:103640004746594ADDF83CE0059DDDF81880DDF875
:103650002090CDF854A0039100938A46DBF80040F7
:10366000A000CEF80000DBF80C60C3174FEA860C10
:10367000CEF880C14FEAEC765840294686EA0C0421
:10368000D2F820510593069085FB0101DBF8180064
:10369000079B01EB8005E81785EA0001CEF800538F
:1036A0000791D2F82C118C468CFB0313DBF8241005
:1036B00003EB8103D91783EA0105CEF88034C446B1
:1036C0000895D2F8383183FB0C8CD2F8203183FB7B
:1036D0000787DBF83030674407EB8307CEF80076C6
:1036E0004FEAE778CC4688EA0707D2F8443183FBF3
:1036F0000C9CDDF82490D2F82C3183FB0959A61BD1
:10370000059B069CE41ADBF83C30CC442643079C1E
:103710000CEB8305089BCEF88057201A5B1A0643F2
:103720004FEAE5791E43C8EB070789EA050C0099C3
:10373000039B3743C9EB0C0C47EA0C073943009154
:103740000299043B013902F104020AF1040A184605
:1037500003930BF1040B0EF1800E029126D05B69EE
:10376000C16ADAF80C500793D0F80880DAF82470B0
:10377000DAF80090099171E707338EFB0312DB172B
:10378000C3EBA20202EBC2077F0007F108030F930D
:10379000531C0493FFF7EBBAA1EBD96E1D75A37B05
:1037A0009A79825A83FB2021EC610108299A2A9B8D
:1037B00013990A9CDDF854A0891092109B10216087
:1037C0006260A3602EAA0C34109B149901E052F899
:1037D000043F9B1044F8043B8C42F8D10F9E049D9B
:1037E000129B0A992A463046FFF7AAF9009A02432B
:1037F0001046324604320F920B9A02432B460B922C
:10380000169A0133934204930AF1480A71D00A943C
:10381000ECE5DDF814B0099A0199DFF86CA258467E
:10382000FFF7F8F8009B089ADDF808E003EBC30601
:10383000944B03EB06160025394606F14807A6F11E
:1038400004092C460DF58C78DC462AAE009701E081
:10385000716A32685AF80439043E83FB0101921000
:103860008B184CF8043B511A59F8043F81FB032391
:10387000019A009F52F8242057F8040D0097134432
:103880009B00024681FB020258F8041D029F0A4475
:103890004FEAC41B9200D817D11747F80B304340AA
:1038A000181A81EA02030134591A0843092CCEF888
:1038B000802845EA0005AEF1800EC9D15DE5002300
:1038C00012930A9B24331493BAE50698019D0024B1
:1038D0002146A0F1480682684368511A0C1B45F83E
:1038E000044D0838591AB04245F8241CF3D1FFF7AB
:1038F000D6BB219A9B1A0C9A03EBC30302EB8303FA
:103900000C93179B049D1A46AA4240F394801D9B7A
:10391000009503EB850302930B9D34AB019347AFF6
:1039200000260E9C0D9BDDF830A00199A646009C58
:103930001A46A645C8BF00225046FFF76BF802980A
:1039400044F3000904F00108AAF1040C35AC4FF06F
:10395000000E54F8042C9200026054F8083B89EAE7
:1039600083034344D9174FEAE27B81EA030AC1EBA0
:103970000A0A8BEA0201CBEB01011A434AEA010170
:10398000BC42C0F880304EEA020E4CF8046F00F5DD
:10399000807045EA0105DCD1049B009A1946BEF10E
:1039A000000F18BF114613460C9A049124320C9252
:1039B000029A04320292179A013393420093B0D1D3
:1039C0000B951D461F2D0EDC1D9B002203EB850170
:1039D0000023CA508033B3F5106FFAD10135202D82
:1039E00001F10401F4D1209A1C9B1F991E981B9F82
:1039F0001344199A1B010A4403EBC2031A9A1A448E
:103A00001346064641F6083441F61831DD6B04983A
:103A10000B9BB3FA83F341F61032013B30603D510A
:103A20007B50189BBB50002047B0BDE8F08F0023AF
:103A300004930B93C8E4049DC4E7146C54B1189923
:103A400004914A1E02EBC2077F0007F108030F939F
:103A5000FFF78DB90E9B049403EB00231293082308
:103A60000F93FFF778BA0D9A1C9B13441B011A9A07
:103A700003EBC10313441C6CFFF76DBA4FF0FF302A
:103A8000D2E700BFEC6101080C5B01082DE9F04FA3
:103A900097B0DDF880B0DDF884A0002800F08483C2
:103AA0000468002C00F0808345680095002D00F02C
:103AB0007B838668002E00F07783156807902B447F
:103AC000DD1D48BF03F10E051746069205910A4613
:103AD0000AA8E910FDF790FD3968002940F06281DD
:103AE0002378002B40F096804FEACB034FEACA02BE
:103AF00001935B4402921B01524403EBC203009A00
:103B00001344CB4A596BD86B12F8115002EB4104A5
:103B10000228647800F05882BBF1000F00F06B813E
:103B20004FEA0A130833009AD718D358002B00F035
:103B3000AB824FEA4A13CAEB030104934FEA4B13DB
:103B400049001A460393CBEB02024B1E03EB8202A1
:103B5000053131443244334413F8010F02F8010FA8
:103B60008B42F9D17B68002B00F0AA82049B039A58
:103B7000CAEB030149004B1DCBEB020203EB8202AF
:103B80000A3170183244334413F8011F02F8011F40
:103B90008342F9D1BB68002B00F0C182049B039AD9
:103BA000CAEB0301490001F10A03CBEB020203EB6C
:103BB00082020F3170183244334413F8011F02F8A7
:103BC000011F8342F9D1FB68002B00F09282049B15
:103BD000039ACAEB0301490001F10F03CBEB020288
:103BE00003EB8202143170183244334413F8011F7E
:103BF00002F8011F8342F9D1039B049ACBEB030324
:103C00009B00CAEB020203EB42031E4400237375C0
:103C1000B375A6E04FEACB034FEACA0201935B44B7
:103C200002921B01524403EBC203009A246A13441C
:103C300014F001045B6B03D0BAF1010F00F01581A1
:103C4000B3F5C87F80F2B2807A4A191182FB010273
:103C5000D817C0EB620202EB8200091AC3F3810598
:103C6000002003F003030F9110950E92119301466B
:103C70000546019B029A5B441B01524403EBC202BE
:103C8000009B1A44D36B022B00F01F81002705EB29
:103C90004505674A3D4402EB850292F8205092F8B0
:103CA0002170129592F8225092F8232013971495C0
:103CB00015921CB1BAF1010F00F0ED8012AA099221
:103CC000019A02985A445044120102EBC002009833
:103CD0000244022B516600F0FE804FEA4A134FEA7D
:103CE0004B120493CAEB030303925B00CBEB02027B
:103CF00003EB8203013B0022CDF884A0DDF824A071
:103D000008931746B1469046CDF880B05AF8276020
:103D1000002E11DD089B0EAA43449C1952F827502F
:103D20004C4409EB030B0AA82946FDF76BFC0BF882
:103D3000010FA345F7D1B0440137042FE6D1DDF8D8
:103D400080B0039BDDF884A0049ACBEB03039B00B7
:103D5000CAEB020203EB42034E461E440023B37536
:103D60007375019B029A0799069C5B441B015244A0
:103D700003EBC202009B13441A460AEB4B0303F504
:103D8000FC73926A41F823200AA805992268FDF77E
:103D900095FC2368184400F007032360C01017B097
:103DA000BDE8F08F0AA8FDF72DFC99E6B3F5FA7F80
:103DB00044DB019A029920485A44A3F5FA73120190
:103DC000514402EBC10180FB030200980144A2EBC5
:103DD000E37202EB4205086C0E9200215B1B0F930D
:103DE00011911091002800F0BF81084610930F92A6
:103DF000012102253DE7CAEB4A177F0007F1FF3991
:103E000007F10A08B144B0440AA82946FDF7FAFBB5
:103E100009F8010FC145F7D114373E440AA82146DD
:103E2000FDF7F0FB08F8010FB045F7D199E700BFA7
:103E3000585B01086766666656555555A3F5C87305
:103E4000CB4A991082FB0102D817C0EB620202EB49
:103E500082000025091A03F0030328460F911195EB
:103E600029460E921093012503E75A10B32A03F056
:103E7000010040F37F81F32A00F39981B43A1111D4
:103E8000C2F381030E9102F0030200210F931092FE
:103E900011910425EDE612AF06F1F80506F58474DC
:103EA00000220DF1380E09979846BC465CF8227046
:103EB0005EF8223045F8043F0132042A44F8047FBA
:103EC000F4D14346C6F8F800FAE6126C002A14BF93
:103ED00002270127DBE6136C002B00F03D814FEA3F
:103EE0004A130493CAEB03034FEA4B125B00013BF6
:103EF000CBEB020503EB85050E9C039235440027AE
:103F00000AA82146FDF77EFB0137062F05F8010FB1
:103F1000F6D14FF001080323039A09980499CDF8CC
:103F200080B04FEA88084044CBEB02029200CAEB13
:103F3000010181460EA8404402EB41028046CDF8C3
:103F400084A0934659F8047B002F22DD1F4407EB21
:103F5000470503EB43035B445D44D8F8004006EBA0
:103F6000030A354421460AA8FDF74CFB21468AF88E
:103F700017000AA8FDF746FB21468AF818000AA890
:103F8000FDF740FB0AF1030A8AF81600AA45E9D1B9
:103F90003B4616AA914508F10408D3D1DDF880B05C
:103FA000DDF884A0039B049ACBEB03039B00CAEBD0
:103FB000020203EB42031E44002386F83D3086F8DC
:103FC0003C3086F83B30CCE61B6C002B00F0BD800B
:103FD0004FEA4A134FEA4B120493CAEB03035B0008
:103FE0000392CBEB0202DF1D03F1FF3893009844EC
:103FF0003B44B044F7180AA82946FDF703FB08F82C
:10400000010FB845F7D10323049ACAEB0201039AC2
:10401000CBEB02024900920002EB010803EB4303E1
:10402000123108EB03090A44B144B71829460AA81B
:10403000FDF7E8FA294689F817000AA8FDF7E2FA21
:10404000294689F818000AA8FDF7DCFA09F10309E6
:1040500089F81600B945E9D1B04421460AA8FDF710
:10406000D1FA214688F829000AA8FDF7CBFA2146A3
:1040700088F82A000AA8FDF7C5FA08F1030888F8AD
:104080002800B845E9D18DE74FEA4A120492CAEBFD
:1040900002024FEA4B115200013ACBEB010902EB4D
:1040A000890903919846B1440AA82946FDF7AAFA5E
:1040B00008F10108B8F1060F09F8010FF4D151E534
:1040C000049B039ACAEB03035B000533CBEB0209A5
:1040D00003EB8909B1444FF006080AA82946FDF709
:1040E00091FA08F10108B8F10B0F09F8010FF4D1AA
:1040F00050E5049B039ACAEB03035B000F33CBEB41
:10410000020703EB8707374410250AA82146FDF76D
:1041100079FA0135152D07F8010FF6D16CE5049BEE
:10412000039ACAEB03035B000A33CBEB020803EBF1
:104130008808B0440B250AA82146FDF763FA01352B
:10414000102D08F8010FF6D13DE54FEA4A1204920E
:104150004FEA4B12039257E74FEA4A1204924FEA92
:104160004B1298460392D7E60121022581E500BF54
:1041700067666666164F174987FB0275DB17C3EB48
:10418000E50505EBC503A2EB830281FB0231A1EB40
:10419000E27707EB4703A2EB430300210E950F974D
:1041A00010931191032564E54FF0FF30F7E50A4BBA
:1041B000F43A83FB0213A3EBE27303EB4301521ABD
:1041C00000210E930F9211911091052551E500BF2A
:1041D000398EE338ABAAAA2A565555552DE9F04336
:1041E00000294FF000079146BE461FDD3E46041FE2
:1041F00000F6FC0554F8043F55F8040F1A181B1A72
:1042000022602B6020684FEAE37C4FEAE07888EA7E
:1042100000008CEA03030136C8EB0000CCEB03037B
:104220008E424EEA000E47EA0307E3D1D9F8003088
:10423000D9F8041043EA0E030F4389E88800BDE86B
:10424000F08300BF2DE9F04F97B0209D0C90AE6930
:10425000002E77D1D5F82C80D2F834B0219A219C49
:104260006F69DFF8FCE208F10100D2003BF810C0F2
:10427000C4EB020A0FFA8CF40D1BB8420EEB8A0154
:10428000029100F34A81002DB24640F364819844C4
:104290003B440193B14B1344039318F8013F0BEBDC
:1042A0004001072B0091B14645D0029951F823E017
:1042B0008F69CEEB0707009B33F802BF00930FFA1C
:1042C0008CF30FFA8BFCC3EB0C0CBCF1000F26DD5A
:1042D000A0000C9A00F6FC06A4441644104403E027
:1042E0000430002D00F01381036887FB03239B003B
:1042F000D91746F8043F4B405B1A02684AEA030AA2
:104300008EFB02329200D11781EA020301345B1A5C
:104310006445026005F1FF3549EA0309E0D1019BDC
:10432000984500F0F480002D00F0F18018F8013F6E
:10433000072BDC46B9D1894B219A53F832E0039B15
:104340005F68B8E7013E012E00F2E780506BAC6A6F
:104350002E69219A824F00EB4405D200B5F9305006
:1043600005EB4508219DC8EB0101C5EB020E0136A6
:10437000651C8C46B54207EB8E010E9180F2CD8014
:104380006146022940F3C98005EB450506EB460668
:10439000163506F113015D1918340B440D9300EB2B
:1043A00044030B936D4B0A954FF0000A1344CDF86C
:1043B00000A0CDF804A00F93E2460A980E9C0021BD
:1043C00010F8013F072B00F0B18054F82320A369B7
:1043D00010AD9B1A45F8212013AA42F82130013173
:1043E0000329EDD10B9A32F9023F0B9232F9022CDC
:1043F0009B1A002B40F3A780139A0392109A049201
:1044000003EB4303149A06924344119A08920993CA
:10441000159A0C9B079208F10109129A059203EB79
:10442000890902E0BAF1020F6DDD59F8043C039AE4
:104430001946104680FB01218900049AC9F8FC182E
:104440004FEAE17E8EEA0101104680FB03239B00C8
:10445000D9F80020069C49F8043CDE17734002930B
:104460001046234683FB00408000089CC9F80009E1
:104470004FEAE07C8CEA0000234683FB0242920074
:10448000D9F80440C9F80020D7177A402546079B81
:1044900083FB05B5AD004FEAE57BCEEB0101CCEB2C
:1044A00000008BEA050E0843CBEB0E0B0099C9F810
:1044B000045940EA0B0001430091059B83FB04145F
:1044C000A400029BC9F80440E1179B1BD21B81EAA0
:1044D00004001A43411A019B0A4313430193099BA9
:1044E00008F103089845AAF1030A09F10C0999D1CA
:1044F0000A9A0D998A42134605D00333BAF1020F86
:104500000A933FF75AAFDDF800A0DDF80490239B33
:1045100083E8000617B0BDE8F08F4FF0000A239B38
:10452000D14683E8000617B0BDE8F08F0B4B219A07
:1045300010AD53F832200F9B45F8212013AA5B6879
:1045400042F821304BE70A9B0D9A9342DBD00A9B3D
:1045500003330A9331E7B146D9E700BFA4600108ED
:10456000B46101082DE9F04FA1B0A94D2B9E2C9FFD
:104570003468059307EB440405EB8413DDF8A8E0E9
:10458000019306F110094FF0000C4FF0010856F8A6
:10459000043F376908FA03F5002F05F1FF350EDDFA
:1045A0000CF18043013BDC190DF1240A0AEB840471
:1045B0000AEB830343F8045FA342FBD1BC444E459E
:1045C000E5D1DEF81850002D40F09080DEF82C4048
:1045D000DEF81430526B069304F101081F4632F8DE
:1045E00018300FFA83FA0126CAEB0101B8451F966D
:1045F00000911E96AB4672DC059902EB48022144FD
:10460000039104922C99834A02EBC102079209AAF2
:1046100002EB8402A9460292039A029C12F8011F3F
:10462000039254F8042F02948A4251D04A1CCC07BA
:104630004FEA620248D5019951F82260002201999F
:104640008F58049931F8022F05921BB212B2C3EBB6
:10465000020C009B04919C45A8BF9C46BCF1000F36
:1046600008F1010826DD0AF1804E0EF1FF3E4FEA07
:104670008E0404F51065E64400EB8E0E05440444F8
:1046800054F8043F87FB03239B00D91745F8043FE8
:104690004B405B1A22684BEA030B86FB0232920006
:1046A000D11781EA02035B1A7445226049EA0309C3
:1046B000E6D1E244009BB3EB0C03009310D0069BC1
:1046C00043450DDB059BA7E7019992000E68B6E70D
:1046D000504A2C9952F83160079A5768B1E7A946B9
:1046E0002E9B83E8000A21B0BDE8F08F536B2C9914
:1046F00007930EF118020492464A4FF0000B012373
:1047000002EBC10206921593D946CDF80CB0049B7A
:10471000079F53F8042F0493194607EB420351F8FF
:10472000181C1B8E039E0324551CA6468D4213FBAA
:104730000E6462DC059D01EB41013144691802EB16
:10474000420C029109A902F1180AB44401EB820259
:10475000AC4407EB4A0A0092009D9CF81A1055F8E9
:10476000042F00958A4241D04A1CC9074FEA6202D1
:1047700038D5019951F82270002201998E583AF8E3
:10478000028F1AB20FFA88F39B1A002B23DD03EB7A
:10479000430304EB030E00EB840550F8243086FB42
:1047A00003239B00D917C5F800394B405B1A50F81A
:1047B00024204BEA030B87FB02329200D11781EAD7
:1047C000020340F8242003345B1A744505F10C05FC
:1047D00049EA0309E1D1029B0CF1030C9C450CD082
:1047E0004346B9E7019992000F68C6E7094A2C9938
:1047F00052F83170069A5668C1E7039B0133032BC8
:10480000039384D12E9B83E8000A21B0BDE8F08F8A
:10481000B4600108A4600108002800F08180C3682A
:10482000002B7DD02DE9F04F446985B0002C74D069
:10483000D0F81880B8F1000F6FD0D0F8BC37022B39
:104840000F4608F5085604F5D8592BD0326809F1FF
:1048500018094FF0000A0AF00105D9F8003000935A
:1048600020462B46414600F061F833682E4A290164
:10487000294403EB8111384608EB810100F0C6FBA7
:1048800032680AF1010A521B02F00702BAF1120F54
:1048900004F1800407F140073260DCD1002005B04C
:1048A000BDE8F08F04F51063CA460393326808F13F
:1048B000800309F118090AF11C0A02934FF0000B5A
:1048C0000BF00105D9F80030009320462B464146F5
:1048D00000F02CF8DAF8003032680299009304F501
:1048E00010602B4600F022F833680F4A2901294452
:1048F00003EB8111384608EB810100F0FBFC3268C4
:10490000039B521B803402F007029C420BF1010B07
:1049100007F180073260D3D1C0E74FF0FF30BEE728
:104920004FF0FF30704700BFC05B01082DE9F04F2A
:1049300087B0109C0191052C0392029300F36283CF
:10494000C4F1060B031F00F17C0153F8042F42FA57
:104950000BF28B421A60F8D10168C26FC66B056C0E
:10496000D04B8C1A0A4483FB0414711B7319640026
:10497000CD4D85FB016102EB03094901D21AC0F854
:104980000090CA4E86FB023252000D19631AC263B0
:10499000056486FB03234168846F876B466CC44DB6
:1049A0005B000A1BC3670C4485FB0232C14BBD1B75
:1049B0005200B91983FB056563184360641ABE4F42
:1049C000E90087FB04548E186400511A846346641E
:1049D00087FB01218268446F476B866CB74D4900A5
:1049E0008167C4EB020E111985FB0E2EBD1BBA198F
:1049F0004FEA4E04B24E86FB05758E18049686600B
:104A00008A1AED00AF4E86FB021251002F19621B6D
:104A10004163876486FB0212D0F80CE0046F066BDA
:104A2000C56CA94F5200C4EB0E014267744487FB6A
:104A30000121A64F721B4900354487FB026204EB3B
:104A4000050A9200641BC0F80CA0A14D85FB04640C
:104A5000561864008A1A0463C66485FB0212D0F8F3
:104A600010E0C46EC66A056D9A4F5200C4EB0E0189
:104A70000267744487FB0121721B49002E44964D46
:104A800085FB0272A5199200A41B0561934E86FB5B
:104A90000474571864008A1AC462076586FB021200
:104AA000D0F814C0846E876A466DDFF850E2520079
:104AB000C4EB0C01C26664448EFB0121BA1B4900A1
:104AC0003744874E86FB02E2E6195200E41B46613A
:104AD000844F87FB04E402EB010EA4008A1A84626F
:104AE000C0F854E087FB0212D0F818C0416ED0F82D
:104AF0002480876DDFF808E29200C1EB0C04826627
:104B000061448EFB0424C7EB080E62004744764CD8
:104B100084FB0ECECC194FEA4E0EC91B8461734F35
:104B200087FB01C10EEB020C8900CEEB0202416251
:104B3000C0F858C087FB0212D0F81CC0076ED0F82E
:104B40002080C16DDFF8BCE192004266C7EB0C0229
:104B500067448EFB02C2C1EB080E08EB010C520049
:104B6000634981FB0E8E07EB0C014FEA4E0ECCEB36
:104B70000707C161DFF890C18CFB07870EEB0208C5
:104B80003F01CEEB020E0762C0F85C808CFB0E2E5C
:104B9000DFF87881CDF814B04FEA0E120266A44611
:104BA0000A4634465146049E0490AA4600F1200766
:104BB0004D46C2EB050E05EB020B58F8182C82FB94
:104BC0000E5ECAEB01054FEA4E0E01EB0A0958F8DA
:104BD000142C82FB0515C9EB0B01ED00D94458F8E4
:104BE00010AC8AFB0121C5EB0E02490075448AFB1B
:104BF00002E2CCEB030E03EB0C0A58F80C3C52001B
:104C0000184680FB0E3E331B344458F8086C4FEABC
:104C10004E0E304680FB0363C4EB0A0C5B00544429
:104C200058F804AC8AFB0C6CC3EB0E064FEA8C0CF4
:104C300073448AFB06E62F48C4EB090AB60080FBE2
:104C40000AEACCEB010E80FB0EBE4FEA4E0E8C44FE
:104C5000A144F4444FEA4A04E91A47F818CC47F84B
:104C600014EC47F8209C47F81C4C80FB0141941B36
:104C70004900164480FB0424640026442B4433443A
:104C800047F8103C1C4B47F8044C08F118080E4438
:104C90009845214447F8086C47F80C1C07F1200799
:104CA00047D035E051C21340FB22855172464F4038
:104CB000BD45B340CF200B6D103CE1426D2DFA4154
:104CC0009057D941449F91482134F943968DFC5E19
:104CD000630ECB52C41BCC46971AD84A2E40E264CE
:104CE000B31D7D7CA924E24326CF6F6BC1923C6E3D
:104CF000EBF64C5F9A79825A04650108F09C9D4A54
:104D00001137AE4FA71E6056044E9E51A464010891
:104D100057F8205C57F8042C57F8141C57F810ACBF
:104D200057F81C3C57F808CC57F8186C57F80C4C3F
:104D30003FE7039A029BDDF814B00498D21A02F000
:104D40000702002B00F05381019D046802F5806189
:104D500005EB81031C6245F821404FF488630399F9
:104D6000019F0B4407EB83054168296247F8231034
:104D7000446E436F416C23441944C5F82011C5F8B3
:104D80000011466A416B3144C5F82012C5F8001283
:104D9000416D0B44C5F82033C5F800334169C36E3B
:104DA000446FC5F82014C5F80014416D1C4421441B
:104DB000C5F82015C5F80015416BC36A0B44C5F84A
:104DC0002036C5F80036C36C2344C5F82037C5F833
:104DD0000037C168C46EC36FC5F82018C5F8001845
:104DE000C16C1C442144C5F82019C5F80019C16ADA
:104DF000C36B0B44C5F8203AC5F8003AC36D02995D
:104E00002344C5F8203BC5F8003BC369C66FC5F80D
:104E1000203CC5F8003CC36D00293344C5F8203D53
:104E2000C5F8003D14BF00244FF4886402F110015E
:104E3000C36BC5F8203E0C44C5F8003EC5F8206F92
:104E400007EB8403C5F8006F45681D6247F82450DE
:104E5000866F446E456C34442544C3F82051C3F832
:104E60000051456A876B2F44C3F82072C3F8007263
:104E7000856D2544C3F82053C3F800538469C3F8F3
:104E80002044C3F80044866E846F856D3444254405
:104E9000C3F82055C3F80055856B876A2F44C3F8C3
:104EA0002076C3F80076856C2544C3F82057C3F8F4
:104EB00000578468C3F82048C3F80048066F846E22
:104EC000856C34442544C3F82059C3F80059856AD9
:104ED000076B2F44C3F8207AC3F8007A056D254488
:104EE000C3F8205BC3F8005B0469C3F8204CC3F827
:104EF000004C066E046F056D34442544C3F8205DF4
:104F0000C3F8005D076A056B3D44C3F8205EC3F833
:104F1000005E006C0444C3F8204FC3F8004FBBF19F
:104F2000000F61D0029B019F002B14BF00234FF4A0
:104F3000886302F580621A44CBF11F0457F82230CF
:104F4000DD1743FA04F6AE4207EB820003D00123DB
:104F5000A340013B6B40029D019E002D039D14BFA9
:104F60004FF4886700272F44012503FA0BF306EB63
:104F70008707A5400362013D46F8223007F1200271
:104F800007F5815752F8203CD81743FA04F68642B9
:104F900018BF80EA050303FA0BF3136042F8203CC4
:104FA00002F58072BA42EDD1029B002B14BF00269D
:104FB0004FF48866019B0E4403EB860606F120023F
:104FC00006F5815652F8203CD91743FA04F088427E
:104FD00018BF85EA010303FA0BF3136042F8203C83
:104FE00002F58072B242EDD107B0BDE8F08F019DAD
:104FF000046802F5046105EB81031C62029B45F81D
:105000002140ACE64FF0000BA6E400BF2DE9F04FC5
:105010004FF0007383B04FF0000E84461768546859
:105020000E68CD6DC6FB073E66427446C5FB06346E
:10503000D5684F688E6D9068C7FB00346D42C6FB23
:10504000053455698F684E6D1069C7FB00346D4299
:10505000C6FB0534D569CF680E6D9069C7FB003477
:105060006D42C6FB0534556A0F69CE6C106AC7FBEA
:1050700000346D42C6FB0534D56A4F698E6C906A68
:10508000C7FB00346D42C6FB0534556B8F694E6C0F
:10509000106BC7FB00346D42C6FB0534D56BCF697E
:1050A0000E6C906BC7FB00346D42C6FB05341B0DC4
:1050B00043EA0433DC17B4EB635F4FEAA31501F551
:1050C00080561CBF84F4FF4585F07F05ACF8005086
:1050D0004FF0007300243668D2F80054C6FB053444
:1050E00041F20405D2F804644D59C5FB063441F27F
:1050F0000805D2F808644D59C5FB063441F20C0589
:10510000D2F80C644D59C5FB063441F21005D2F8B3
:1051100010644D59C5FB063441F21405D2F81464ED
:105120004D59C5FB063441F21805D2F818644D59A3
:10513000C5FB063441F21C05D2F81C644D59C5FB71
:1051400006341B0D43EA0433DD17B5EB635F4FEA0A
:10515000A3141CBF85F4FF4484F07F0402F5886328
:10516000ACF820400CF14009E64602F180060193BC
:105170004FF000784FF0000C56F840AC56F83CBCAD
:10518000D1F80051D1F85C7142466446C5FB0A244F
:1051900043466046C5FB0B30CBF10005C7FB052439
:1051A000C7FB0A3056F8387C56F834ACD1F804B155
:1051B000D1F85851CBFB0724CBFB0A30CAF1000AC7
:1051C000C5FB0A24C5FB073056F8307C56F82CACDA
:1051D000D1F808B1D1F85451CBFB0724CBFB0A30EE
:1051E000CAF1000AC5FB0A24C5FB073056F8287C23
:1051F00056F824ACD1F80CB1D1F85051CBFB0724B0
:10520000CBFB0A30CAF1000AC5FB0A24C5FB0730F4
:1052100056F8207C56F81CACD1F810B1D1F84C519E
:10522000CBFB0724CBFB0A30CAF1000AC5FB0A24DA
:10523000C5FB073056F818AC56F8145CD1F814B119
:10524000D1F84871CBFB0A24CBFB05306D42C7FB7C
:105250000524C7FB0A3056F810AC56F80C5CD1F8A0
:1052600018B1D1F84471CBFB0A24CBFB05306D4259
:10527000C7FB0524C7FB0A3056F808AC56F8045C97
:10528000D1F81CB1D1F84071CBFB0A24CBFB05301F
:105290006D42C7FB0524C7FB0A30120D42EA0432F7
:1052A000D5171B0DB5EB625F43EA00334FEAA2143A
:1052B0004FEAE37018BF85F4FF444FEAA31218BF0A
:1052C00084F07F04B0EB635F019B2EF8024F18BFA0
:1052D00080F4FF4206F1400618BF82F07F029E4232
:1052E00029F8022D01F580717FF446AF03B0BDE8C7
:1052F000F08F00BF2DE9F04F4FF00073002585B00F
:1053000016680F681C46AE46C7FB064E5768C7F1C5
:10531000000CCF6DC7FB0C4ED1F88070C7FB063573
:10532000D1F8DC60C6FB0C3596684F68C7FB064EAB
:10533000D768C7F1000C8F6DC7FB0C4ED1F8847095
:10534000C7FB0635D1F8D860C6FB0C3516698F68E7
:10535000C7FB064E5769C7F1000C4F6DC7FB0C4EDB
:10536000D1F88870C7FB0635D1F8D460C6FB0C3580
:105370009669CF68C7FB064ED769C7F1000C0F6D61
:10538000C7FB0C4ED1F88C70C7FB0635D1F8D06046
:10539000C6FB0C35166A0F69C7FB064E576AC7F184
:1053A000000CCF6CC7FB0C4ED1F89070C7FB0635D4
:1053B000D1F8CC60C6FB0C35966A4F69C7FB064E28
:1053C000D76AC7F1000C8F6CC7FB0C4ED1F89470F4
:1053D000C7FB0635D1F8C860C6FB0C35166B8F6964
:1053E000C7FB064E576BC7F1000C4F6CC7FB0C4E4A
:1053F000D1F89870C7FB0635D1F8C460C6FB0C35F0
:10540000966BCF69C7FB064ED76BC7F1000C0F6CCC
:10541000C7FB0C4ED1F89C70C7FB0635D1F8C060B5
:10542000C6FB0C35240D44EA0E34E7171B0DB7EB11
:10543000645F43EA05334FEAA4164FEAE3751CBFE5
:1054400087F4FF4686F07F06B5EB635F4FEAA3144F
:1054500018BF85F4FF4401F5805318BF84F07F0422
:10546000068000274FF00076039344801B68D2F833
:1054700000543446BC46C3FB054C01F5845EDEF89F
:1054800000E0CEFB056741F2040E6346D2F80454F7
:1054900051F80EE0CEFB054341F2840E51F80EE0C8
:1054A000CEFB056741F2080E254651F80EE0D2F812
:1054B0000844CEFB045341F2880E51F80EE0CEFBB7
:1054C000046741F20C0E2C4651F80EE0D2F80C5451
:1054D000CEFB054341F28C0E51F80EE0CEFB056782
:1054E00041F21005D2F810E44D59C5FB0E4341F2CC
:1054F000900C35463E4651F80C70C7FB0E5641F2F3
:10550000140ED2F8147451F80EE0CEFB074341F2AA
:10551000940E51F80EE0CEFB075641F2180ED2F869
:10552000187451F80EE0CEFB074341F2980E51F883
:105530000EE0CEFB075641F21C0ED2F81C7451F857
:105540000EE0CEFB074341F29C0E51F80EE0CEFB7D
:105550000756240D44EA0334E317B3EB645F4FEAC4
:10556000A41718BF83F4FF474FEA155343EA0633E5
:105570004FEAE37518BF87F07F07B5EB635F4FEA2B
:10558000A3141CBF85F4FF4484F07F0400F10803DA
:10559000A0F84070A0F8424001F5807102F1800B44
:1055A000009301905BF840CC5BF83C8C0868CB6DB5
:1055B0004FF000744FF0000EC0FB0C4E4FF0007225
:1055C0000026C0FB0826C8F10009C3FB094EC3FB37
:1055D0000C264FF000700292D1F880A00027CAFB81
:1055E0000C074FF000730025CAFB0835D1F8DC200A
:1055F000C2FB0907C2FB0C355BF838AC5BF834CC56
:10560000D1F80490D1F85880C9FB0A4E029AC9FB20
:105610000C26CCF10009C8FB094EC8FB0A260292F1
:10562000D1F8D880D1F88420C2FB0A07C2FB0C3520
:10563000C8FB0907C8FB0A355BF830AC5BF82CCC1B
:10564000D1F80890D1F85480C9FB0A4E029AC9FBE0
:105650000C26CCF10009C8FB094EC8FB0A260292B1
:10566000D1F8D480D1F88820C2FB0A07C2FB0C35E0
:10567000C8FB0907C8FB0A355BF828AC5BF824CCEB
:10568000D1F80C90D1F85080C9FB0A4E029AC9FBA0
:105690000C26CCF10009C8FB094EC8FB0A26029271
:1056A000D1F8D080D1F88C20C2FB0A07C2FB0C35A0
:1056B000C8FB0907C8FB0A355BF820AC5BF81CCCBB
:1056C000D1F81090D1F84C80C9FB0A4E029AC9FB60
:1056D0000C26CCF10009C8FB094EC8FB0A26029231
:1056E000D1F8CC80D1F89020C2FB0A07C2FB0C3560
:1056F000C8FB0907C8FB0A355BF818AC5BF814CC8B
:10570000D1F81490D1F84880C9FB0A4E029AC9FB1F
:105710000C26CCF10009C8FB094EC8FB0A260292F0
:10572000D1F8C880D1F89420C2FB0A07C2FB0C351F
:10573000C8FB0907C8FB0A355BF810AC5BF80CCC5A
:10574000D1F81890D1F84480C9FB0A4E029AC9FBDF
:105750000C26CCF10009C8FB094EC8FB0A260292B0
:10576000D1F8C480D1F89820C2FB0A07C2FB0C35DF
:10577000C8FB0907C8FB0A351BE90014D1F81C90C7
:10578000D1F84080C9FB0A4E029AC9FB0C26CCF125
:105790000009C8FB094EC8FB0A260292D1F8C08056
:1057A000D1F89C20C2FB0A07C2FB0C35C8FB0907D5
:1057B000C8FB0A35240D44EA0E344FEAE47CBCEB06
:1057C000645F4FEAA41E009A1CBF8CF4FF4E8EF05B
:1057D0007F0E22F804EC000D029A40EA0730C7174A
:1057E000120DB7EB605F42EA06324FEAA0144FEAAF
:1057F000E27618BF87F4FF44009818BF84F07F0456
:105800001B0DB6EB625F43EA053320F8024C4FEA0A
:10581000A21018BF86F4FF40019A18BF80F07F00E5
:10582000DC17B4EB635FA2F87C004FEAA312009B85
:10583000019803F104030093A0F104030193039B77
:1058400018BF84F4FF4201F5807118BF82F07F0217
:105850009942A0F87E200BF1400B7FF4A3AE05B077
:10586000BDE8F08F2DE9F041C66A8E4204D003797D
:105870000F46044673B917B90020BDE8F08160787F
:1058800004F130013A46012305F0CEFA20BBE7626D
:10589000BDE8F08100F130084146407832460123EE
:1058A00005F0F6FAC0B9A369226A20711A4496423B
:1058B000E1D2E578012D01D8DDE7A36960781E44C7
:1058C000013D324641460123EDB205F0E1FA012DDA
:1058D000F3D1002FD0D0D2E70120BDE8F08100BF86
:1058E0002DE9F84F00210546FFF7BCFF034650B9EC
:1058F0002B78032B0AD0002168780A4605F000FBBC
:10590000031C18BF01231846BDE8F88F6B79002BE4
:10591000F1D005F13001E8620B4605F50C7203F891
:10592000010B93424FF00004F9D12B69EA6885F826
:105930001832C3F3072B4FEA134A4FEA126C612067
:105940001B0EC2F307294FEA12484FF0550E52269C
:1059500085F819B285F81AA24FF0410B4FF0720A80
:10596000AA2785F81B3285F81C2285F8320085F8B5
:10597000170285F81D9285F81E8285F81FC285F8EA
:105980002EE285F82F7285F8306085F8316085F851
:1059900033B085F816B285F814A285F815A2687898
:1059A0006A69012305F074FA6C71A4E703692DE9B3
:1059B000F04101F10902002B56D0456995F80CC061
:1059C0000CF00807FFB26E1E01F111040DE0A3F107
:1059D000410E37B1BEF1190F03F1200E01D85FFA65
:1059E0008EF302F8013BA2420AD016F8013F202BA9
:1059F00061D0052BEBD1E52302F8013BA242F4D1A3
:105A00002B7A202B224618D02E230CF0100C02F8F3
:105A1000043B5FFA8CF60134EF1D17F8013F202B91
:105A2000A3F1410E4DD026B1BEF1190F9CBF20331A
:105A3000DBB204F8013B9442EFD1EB7A0B72AE7FFC
:105A4000EB7F2C7F6F7F360446EA0363234343EAF0
:105A500007230B606C7E2B7E43EA04238B80EC7D56
:105A6000AB7D43EA0423CB80002414708D6905B319
:105A70000369DBB1028C4FF6FF739A4216D0C669F8
:105A8000308898B188466F1E0BE0D8F81C30013B77
:105A9000A34204F1010409DD07F8010F36F81400F0
:105AA00028B1002102F0BCFC0028EED10024002324
:105AB0002B55BDE8F0812B7A1446202B2246A3D12A
:105AC000BBE72246B9E700BF70B504460A464078F6
:105AD00004F13001012305F0A7F908B1032070BDDE
:105AE00094F82F1294F82E324AF6552243EA0123F5
